S01D0000547261666669632D6C696768742D636F6E74726F6C2E73726563D5
S11300000C942A000C946A000C9447000C9447004A
S11300100C9447000C9447000C9447000C94470040
S11300200C9447000C9447000C9447000C94470030
S11300300C9447000C9447000C9447000C94470020
S11300400C9447000C9447000C9447000C94470010
S11300500C94470011241FBECFE5D8E0DEBFCDBF0E
S113006010E0A0E6B0E0E0E4F8E002C005900D92F4
S1130070A236B107D9F720E0A2E6B0E001C01D9294
S1130080A436B207E1F70E943B020C941E040C94C0
S1130090000060E080E00E942C0261E080E00E94A9
S11300A02C0262E080E00E942C0260E081E00E9469
S11300B02C0261E081E00E942C0262E081E00E9457
S11300C02C0262E083E00E9428020E94C5030E9481
S11300D0CD0308951F920F920FB60F9211242F9300
S11300E03F934F935F936F937F938F939F93AF93BC
S11300F0BF93EF93FF93CF93DF931F92CDB7DEB7F8
S113010080916000813019F5AE014F5F5F4F60E070
S113011080E00E9464038981882319F010926300AF
S113012011C0AE014F5F5F4F62E080E00E94640344
S11301308981882321F082E08093630003C081E0F9
S11301408093630081E080936200109260000F90BE
S1130150DF91CF91FF91EF91BF91AF919F918F91DB
S11301607F916F915F914F913F912F910F900FBEAF
S11301700F901F90189560E080E00E94340261E0C7
S113018080E00E94340262E080E00E94340260E079
S113019081E00E94340261E081E00E94340262E066
S11301A081E00E943402089560E080E00E94300201
S11301B062E081E00E9430020E9406040895EF92FA
S11301C0FF920F931F93CF93DF93E82EF62E042F05
S11301D0122F83B7846083BFC0E0D0E022C008B68A
S11301E000FEFDCF88B7816088BF9E01ABEABAEA02
S11301F00E940F0496958795969587959C01220FEA
S1130200331F820F931F880F991FC817D90741F412
S11302106F2D8E2D0E943802612F802F0E9438028C
S11302202196CD34D105D8F2DF91CF911F910F9152
S1130230FF90EF90089562E080E00E94300260E059
S113024081E00E9430020E94060460E081E00E9486
S1130250340221E040E061E081E00E94DF0061E0DF
S113026081E00E94340261E080E00E94340262E096
S113027080E00E94340260E080E00E94300262E08C
S113028081E00E9430020E94060408950F931F9398
S1130290CF93DF93082F162F83B7846083BFC0E00A
S11302A0D0E01EC008B600FEFDCF88B7816088BFCD
S11302B09E01ABEABAEA0E940F049695879596953B
S11302C087959C01220F331F820F931F880F991F5C
S11302D0C817D90721F4612F802F0E943802219674
S11302E0CD34D105F8F2DF91CF911F910F9108958C
S11302F060E081E00E94300261E080E00E944601FB
S113030061E080E00E94340260E081E00E943402F7
S113031021E040E061E081E00E94DF0061E081E0F3
S11303200E94340261E080E00E94340260E080E0D8
S11303300E94300262E081E00E9430020E940604C2
S113034008950E94BB0080916300811103C00E9444
S1130350D40009C0823019F40E941B0104C081300A
S113036011F40E94780160E080E00E94340221E0F0
S113037040E061E081E00E94DF0062E081E00E94F1
S1130380340261E081E00E94340261E080E00E9476
S1130390340260E081E00E94300262E080E00E946A
S11303A030020E94060481E0809360001092620093
S11303B0089580916200811145C00E94BB0060E0F5
S11303C080E00E94300262E081E00E94300261E03D
S11303D080E00E94340262E080E00E9434020E94C5
S11303E0060480916000882321F360E080E00E948D
S11303F0340262E081E00E94340262E080E00E9404
S1130400340260E081E00E94300261E080E00E94FA
S1130410460180916000882361F260E081E00E94DF
S1130420340260E080E00E94340261E080E00E94D7
S1130430340262E080E00E94300261E081E00E94C8
S11304404601B7CF813009F0B4CF0E94A101B1CFEA
S113045040E00E944202089541E00E944202089551
S113046041E00E94B902089540E00E94B902089553
S11304700E94300308950E9449000E94D90180E03F
S113048090E00895813019F130F08230E1F1833049
S113049009F454C0089541110CC02AB381E090E0DE
S11304A002C0880F991F6A95E2F7809582238ABB60
S11304B00895413009F05CC02AB381E090E002C0A5
S11304C0880F991F6A95E2F7822B8ABB0895411120
S11304D00CC027B381E090E002C0880F991F6A9591
S11304E0E2F78095822387BB0895413009F040C02C
S11304F027B381E090E002C0880F991F6A95E2F764
S1130500822B87BB089541110CC024B381E090E095
S113051002C0880F991F6A95E2F78095822384BBF5
S11305200895413029F524B381E090E002C0880F9A
S1130530991F6A95E2F7822B84BB089541110CC080
S113054021B381E090E002C0880F991F6A95E2F719
S11305508095822381BB0895413051F421B381E019
S113056090E002C0880F991F6A95E2F7822B81BB45
S11305700895813019F130F08230E1F1833009F4CB
S113058054C0089541110CC02BB381E090E002C027
S1130590880F991F6A95E2F7809582238BBB089593
S11305A0413009F05CC02BB381E090E002C0880FB9
S11305B0991F6A95E2F7822B8BBB089541110CC0F9
S11305C028B381E090E002C0880F991F6A95E2F792
S11305D08095822388BB0895413009F040C028B338
S11305E081E090E002C0880F991F6A95E2F7822BA0
S11305F088BB089541110CC025B381E090E002C08E
S1130600880F991F6A95E2F78095822385BB089528
S1130610413029F525B381E090E002C0880F991F8D
S11306206A95E2F7822B85BB089541110CC022B371
S113063081E090E002C0880F991F6A95E2F78095E7
S1130640822382BB0895413051F422B381E090E0CB
S113065002C0880F991F6A95E2F7822B82BB089526
S1130660813089F028F08230C9F0833011F1089587
S11306702BB381E090E002C0880F991F6A95E2F7DE
S113068082278BBB089528B381E090E002C0880FD5
S1130690991F6A95E2F7822788BB089525B381E004
S11306A090E002C0880F991F6A95E2F7822785BB04
S11306B0089522B381E090E002C0880F991F6A95E3
S11306C0E2F7822782BB08958130E9F030F082306E
S11306D081F1833009F443C0089579B381E090E057
S11306E09C01062E02C0220F331F0A94E2F7872FC3
S11306F090E08223932302C0959587956A95E2F74B
S1130700FA018083089576B381E090E09C01062E7F
S113071002C0220F331F0A94E2F7872F90E082234E
S1130720932302C0959587956A95E2F7FA01808331
S1130730089573B381E090E09C01062E02C0220F5D
S1130740331F0A94E2F7872F90E08223932302C099
S1130750959587956A95E2F7FA018083089570B3B9
S113076081E090E09C01062E02C0220F331F0A9400
S1130770E2F7872F90E08223932302C09595879513
S11307806A95E2F7FA0180830895789485B78360C7
S113079085BF8BB780648BBF089513BE12BE0895C6
S11307A080349105B9F030F48130910559F00897FF
S11307B069F013C0811521E0920791F081159440EE
S11307C099F00BC083B7816083BF07C083B7826091
S11307D083BF03C083B7836083BF20E030E010C0D1
S11307E083B7846083BFF9CF83B7856083BFF5CFB8
S11307F008B600FEFDCF88B7816088BF2F5F3F4FEA
S113080026173707A8F3089513BE08956DE470E022
S113081080E091E00E94D0030E9404040895A29F06
S1130820B001B39FC001A39F700D811D1124911DC0
S1130830B29F700D811D1124911D0895F894FFCF6E
S10508400100B1
S9030000FC
