S01D0000547261666669632D6C696768742D636F6E74726F6C2E73726563D5
S11300000C942A000C94E7000C9434000C943400F3
S11300100C9434000C9434000C9434000C9434008C
S11300200C9434000C9434000C9434000C9434007C
S11300300C9434000C9434000C9434000C9434006C
S11300400C9434000C9434000C9434000C9434005C
S11300500C94340011241FBECFE5D8E0DEBFCDBF21
S11300600E941D010C94BB020C94000060E080E02F
S11300700E94110161E080E00E94110162E080E0D1
S11300800E94110160E081E00E94110161E081E0C1
S11300900E94110162E081E00E94110162E083E0AC
S11300A00E940D010E9471020E947902089560E08D
S11300B080E00E94150161E080E00E94190162E085
S11300C080E00E9419010E94B20260E080E00E9478
S11300D0190161E080E00E94150162E080E00E9465
S11300E019010E94B20260E080E00E94190161E0FF
S11300F080E00E94190162E080E00E9415010E94E4
S1130100B202D5CF1F93CF93DF931F92CDB7DEB743
S1130110AE014F5F5F4F60E080E00E941002898172
S113012081110BC0AE014F5F5F4F61E00E9410026E
S11301308981882321F011E003C010E001C012E09E
S113014060E080E00E94190161E080E00E941901F2
S113015062E080E00E94190111110BC062E081E0AD
S11301600E94150160E080E00E9415010E94B20225
S113017029C01150123030F560E081E00E94150171
S11301800E94B20260E081E00E94190161E081E016
S11301900E94150161E080E00E9415010E94B202F4
S11301A061E081E00E94190161E080E00E94190190
S11301B060E080E00E94150162E081E00E94150188
S11301C00E94B2020F90DF91CF911F9108951F9268
S11301D00F920FB60F9211242F933F934F935F9377
S11301E06F937F938F939F93AF93BF93EF93FF93FB
S11301F00E9482000E94B002FF91EF91BF91AF91E3
S11302009F918F917F916F915F914F913F912F912A
S11302100F900FBE0F901F90189540E00E9422018E
S1130220089541E00E942201089541E00E9499014D
S1130230089540E00E94990108950E9436000E94AA
S11302405700FDCF813019F130F08230E1F1833075
S113025009F454C0089541110CC02AB381E090E020
S113026002C0880F991F6A95E2F7809582238ABBA2
S11302700895413009F05CC02AB381E090E002C0E7
S1130280880F991F6A95E2F7822B8ABB0895411162
S11302900CC027B381E090E002C0880F991F6A95D3
S11302A0E2F78095822387BB0895413009F040C06E
S11302B027B381E090E002C0880F991F6A95E2F7A6
S11302C0822B87BB089541110CC024B381E090E0D8
S11302D002C0880F991F6A95E2F78095822384BB38
S11302E00895413029F524B381E090E002C0880FDD
S11302F0991F6A95E2F7822B84BB089541110CC0C3
S113030021B381E090E002C0880F991F6A95E2F75B
S11303108095822381BB0895413051F421B381E05B
S113032090E002C0880F991F6A95E2F7822B81BB87
S11303300895813019F130F08230E1F1833009F40D
S113034054C0089541110CC02BB381E090E002C069
S1130350880F991F6A95E2F7809582238BBB0895D5
S1130360413009F05CC02BB381E090E002C0880FFB
S1130370991F6A95E2F7822B8BBB089541110CC03B
S113038028B381E090E002C0880F991F6A95E2F7D4
S11303908095822388BB0895413009F040C028B37A
S11303A081E090E002C0880F991F6A95E2F7822BE2
S11303B088BB089541110CC025B381E090E002C0D0
S11303C0880F991F6A95E2F78095822385BB08956B
S11303D0413029F525B381E090E002C0880F991FD0
S11303E06A95E2F7822B85BB089541110CC022B3B4
S11303F081E090E002C0880F991F6A95E2F780952A
S1130400822382BB0895413051F422B381E090E00D
S113041002C0880F991F6A95E2F7822B82BB089568
S11304208130E9F030F0823081F1833009F443C047
S1130430089579B381E090E09C01062E02C0220F5A
S1130440331F0A94E2F7872F90E08223932302C09C
S1130450959587956A95E2F7FA018083089576B3B6
S113046081E090E09C01062E02C0220F331F0A9403
S1130470E2F7872F90E08223932302C09595879516
S11304806A95E2F7FA018083089573B381E090E0FE
S11304909C01062E02C0220F331F0A94E2F7872F15
S11304A090E08223932302C0959587956A95E2F79D
S11304B0FA018083089570B381E090E09C01062ED8
S11304C002C0220F331F0A94E2F7872F90E08223A1
S11304D0932302C0959587956A95E2F7FA01808384
S11304E00895789485B7836085BF8BB780648BBF8C
S11304F0089513BE12BE089580349105B9F030F406
S11305008130910559F0089769F013C0811521E0F5
S1130510920791F08115944099F00BC083B78160E4
S113052083BF07C083B7826083BF03C083B7836080
S113053083BF20E030E010C083B7846083BFF9CF6D
S113054083B7856083BFF5CF08B600FEFDCF88B7BB
S1130550816088BF2F5F3F4F26173707A8F30895A0
S113056013BE08956DE470E080E091E00E947C0287
S10D05700E94B0020895F894FFCF32
S9030000FC
