:100000000C942A000C947C000C943C000C943C0052
:100010000C943C000C943C000C943C000C943C0070
:100020000C943C000C943C000C943C000C943C0060
:100030000C943C000C943C000C943C000C943C0050
:100040000C943C000C943C000C943C000C943C0040
:100050000C943C0011241FBECFE5D8E0DEBFCDBF1D
:1000600020E0A0E6B0E001C01D92A136B207E1F7A2
:100070000E94A2000C9497010C94000062E083E0BF
:100080000E94920060E080E00E94960063E080E0C1
:100090000E94960067E080E00E949600789485B701
:1000A000836085BF8BB780648BBF089580916000AB
:1000B000813099F028F08230A9F08330C1F0F6CF7A
:1000C00060E080E00E949E0063E080E00E949E006D
:1000D00067E080E00E949E00E9CF60E080E00E943F
:1000E0009A00E4CF63E080E00E949A00DFCF67E0EF
:1000F00080E00E949A00DACF1F920F920FB60F9203
:1001000011248F9380916000833020F48F5F80935F
:10011000600002C0109260008F910F900FBE0F9090
:100120001F90189540E00E94A900089541E00E94A8
:10013000A900089541E00E942001089540E00E9436
:10014000200108950E943E000E94560080E090E049
:100150000895813019F130F08230E1F1833009F4F3
:1001600054C0089541110CC02AB381E090E002C050
:10017000880F991F6A95E2F7809582238ABB0895BC
:10018000413009F05CC02AB381E090E002C0880FE2
:10019000991F6A95E2F7822B8ABB089541110CC022
:1001A00027B381E090E002C0880F991F6A95E2F7BB
:1001B0008095822387BB0895413009F040C027B362
:1001C00081E090E002C0880F991F6A95E2F7822BC8
:1001D00087BB089541110CC024B381E090E002C0B8
:1001E000880F991F6A95E2F78095822384BB089552
:1001F000413029F524B381E090E002C0880F991FB7
:100200006A95E2F7822B84BB089541110CC021B39B
:1002100081E090E002C0880F991F6A95E2F780950F
:10022000822381BB0895413051F421B381E090E0F5
:1002300002C0880F991F6A95E2F7822B81BB08954F
:10024000813019F130F08230E1F1833009F454C08B
:10025000089541110CC02BB381E090E002C0880FDB
:10026000991F6A95E2F7809582238BBB08954130F0
:1002700009F05CC02BB381E090E002C0880F991FA9
:100280006A95E2F7822B8BBB089541110CC028B30D
:1002900081E090E002C0880F991F6A95E2F780958F
:1002A000822388BB0895413009F040C028B381E023
:1002B00090E002C0880F991F6A95E2F7822B88BBF5
:1002C000089541110CC025B381E090E002C0880F71
:1002D000991F6A95E2F78095822385BB0895413086
:1002E00029F525B381E090E002C0880F991F6A9537
:1002F000E2F7822B85BB089541110CC022B381E047
:1003000090E002C0880F991F6A95E2F780958223DA
:1003100082BB0895413051F422B381E090E002C0E5
:10032000880F991F6A95E2F7822B82BB0895F89493
:02033000FFCFFD
:00000001FF
