:100000000C942A000C945E010C943C000C943C006F
:100010000C943C000C943C000C943C000C943C0070
:100020000C943C000C943C000C943C000C943C0060
:100030000C943C000C943C000C943C000C943C0050
:100040000C943C000C943C000C943C000C943C0040
:100050000C943C0011241FBECFE5D8E0DEBFCDBF1D
:1000600020E0A0E6B0E001C01D92A236B207E1F7A1
:100070000E94B9010C9457030C94000060E080E0EA
:100080000E94AD0161E080E00E94AD0162E080E08D
:100090000E94AD0160E081E00E94AD0161E081E07D
:1000A0000E94AD0162E081E00E94AD0162E083E068
:1000B0000E94A9010E940D030E94150308958091DA
:1000C0006000811142C060E00E94B10162E081E005
:1000D0000E94B10161E080E00E94B50162E080E031
:1000E0000E94B5010E944E0360E080E00E94B501CD
:1000F00062E081E00E94B50161E080E00E94B10110
:1001000061E081E00E94B10162E080E00E94B501FF
:100110000E944E0360E080E00E94B50161E080E053
:100120000E94B50161E081E00E94B50162E080E0DB
:100130000E94B10160E081E00E94B1010E944E0383
:1001400060E081E00E94B501BACF813009F0B7CFFD
:1001500060E080E00E94B50161E080E00E94B501AE
:1001600062E080E00E94B50160E081E00E94B5019C
:1001700061E081E00E94B50162E081E00E94B5018A
:100180008091610081110AC060E00E94B10162E0CB
:1001900081E00E94B1010E944E0361C0823079F576
:1001A00062E080E00E94B10160E081E00E94B10164
:1001B0000E944E0360E081E00E94B50161E081E0B1
:1001C0000E94B10161E080E00E94B1010E944E03F3
:1001D00061E081E00E94B50161E080E00E94B5012C
:1001E00062E080E00E94B50160E080E00E94B10121
:1001F00062E081E00E94B1010E944E0330C0813074
:1002000071F561E080E00E94B10160E081E00E9450
:10021000B1010E944E0361E080E00E94B50160E000
:1002200081E00E94B50161E081E00E94B10161E0DE
:1002300080E00E94B1010E944E0361E081E00E94D3
:10024000B50161E080E00E94B50160E080E00E94BD
:10025000B10162E081E00E94B1010E944E0360E0C2
:1002600080E00E94B50161E081E00E94B10161E09F
:1002700080E00E94B1010E944E0362E081E00E9492
:10028000B50161E081E00E94B50161E080E00E947B
:10029000B50160E081E00E94B10162E080E00E946F
:1002A000B1010E944E0360E081E00E94B50162E06E
:1002B00080E00E94B5011092600001CF1F920F9262
:1002C0000FB60F9211242F933F934F935F936F9329
:1002D0007F938F939F93AF93BF93EF93FF93CF93AE
:1002E000DF931F92CDB7DEB7AE014F5F5F4F60E087
:1002F00080E00E94AC028981882319F0109261008D
:1003000011C0AE014F5F5F4F61E080E00E94AC0220
:100310008981882321F081E08093610003C082E01D
:100320008093610081E0809360000F90DF91CF9116
:10033000FF91EF91BF91AF919F918F917F916F91BD
:100340005F914F913F912F910F900FBE0F901F9093
:10035000189540E00E94BE01089541E00E94BE0150
:10036000089541E00E943502089540E00E94350260
:1003700008950E943E000E945F00FDCF813019F178
:1003800030F08230E1F1833009F454C00895411116
:100390000CC02AB381E090E002C0880F991F6A95D3
:1003A000E2F7809582238ABB0895413009F05CC052
:1003B0002AB381E090E002C0880F991F6A95E2F7A6
:1003C000822B8ABB089541110CC027B381E090E0D5
:1003D00002C0880F991F6A95E2F78095822387BB38
:1003E0000895413009F040C027B381E090E002C099
:1003F000880F991F6A95E2F7822B87BB08954111F8
:100400000CC024B381E090E002C0880F991F6A9568
:10041000E2F78095822384BB0895413029F524B307
:1004200081E090E002C0880F991F6A95E2F7822B65
:1004300084BB089541110CC021B381E090E002C05B
:10044000880F991F6A95E2F78095822381BB0895F2
:10045000413051F421B381E090E002C0880F991F30
:100460006A95E2F7822B81BB0895813019F130F053
:100470008230E1F1833009F454C0089541110CC079
:100480002BB381E090E002C0880F991F6A95E2F7D4
:10049000809582238BBB0895413009F05CC02BB35B
:1004A00081E090E002C0880F991F6A95E2F7822BE5
:1004B0008BBB089541110CC028B381E090E002C0CD
:1004C000880F991F6A95E2F78095822388BB08956B
:1004D000413009F040C028B381E090E002C0880FAD
:1004E000991F6A95E2F7822B88BB089541110CC0D1
:1004F00025B381E090E002C0880F991F6A95E2F76A
:100500008095822385BB0895413029F525B381E08C
:1005100090E002C0880F991F6A95E2F7822B85BB95
:10052000089541110CC022B381E090E002C0880F11
:10053000991F6A95E2F78095822382BB0895413026
:1005400051F422B381E090E002C0880F991F6A95B0
:10055000E2F7822B82BB08958130E9F030F08230DF
:1005600081F1833009F443C0089579B381E090E0CC
:100570009C01062E02C0220F331F0A94E2F7872F38
:1005800090E08223932302C0959587956A95E2F7C0
:10059000FA018083089576B381E090E09C01062EF5
:1005A00002C0220F331F0A94E2F7872F90E08223C4
:1005B000932302C0959587956A95E2F7FA018083A7
:1005C000089573B381E090E09C01062E02C0220FD3
:1005D000331F0A94E2F7872F90E08223932302C00F
:1005E000959587956A95E2F7FA018083089570B32F
:1005F00081E090E09C01062E02C0220F331F0A9476
:10060000E2F7872F90E08223932302C09595879588
:100610006A95E2F7FA0180830895789485B783603C
:1006200085BF8BB780648BBF089513BE12BE08953B
:1006300080349105B9F030F48130910559F0089774
:1006400069F013C0811521E0920791F08115944063
:1006500099F00BC083B7816083BF07C083B7826006
:1006600083BF03C083B7836083BF20E030E010C046
:1006700083B7846083BFF9CF83B7856083BFF5CF2D
:1006800008B600FEFDCF88B7816088BF2F5F3F4F5F
:1006900026173707A8F3089513BE08956DE470E098
:1006A00080E091E00E9418030E944C030895F894A2
:0206B000FFCF7A
:00000001FF
