:100000000C942A000C94BF000C943C000C943C000F
:100010000C943C000C943C000C943C000C943C0070
:100020000C943C000C943C000C943C000C943C0060
:100030000C943C000C943C000C943C000C943C0050
:100040000C943C000C943C000C943C000C943C0040
:100050000C943C0011241FBECFE5D8E0DEBFCDBF1D
:1000600020E0A0E6B0E001C01D92A136B207E1F7A2
:100070000E94DE000C941E020C94000060E080E000
:100080000E94D20061E080E00E94D20062E080E045
:100090000E94D20060E080E00E94D20063E080E035
:1000A0000E94D20067E080E00E94D20062E083E01C
:1000B0000E94CE00789485B7836085BF8BB780643B
:1000C0008BBF0E94D301089580916000811136C0DA
:1000D00060E00E94D60061E080E00E94DA0062E009
:1000E00080E00E94DA000E94150260E080E00E9439
:1000F000DA0061E080E00E94D60062E080E00E94C9
:10010000DA000E94150260E080E00E94DA0061E0FF
:1001100080E00E94DA0062E080E00E94D6000E9447
:10012000150260E080E00E94DA0061E080E00E9459
:10013000DA0062E080E00E94DA00C6CF813021F66A
:1001400060E080E00E94D60063E080E00E94DA0078
:1001500067E080E00E94DA000E940C0260E080E02C
:100160000E94DA0063E080E00E94D60067E080E051
:100170000E94DA000E940C0210926000A5CF1F922C
:100180000F920FB60F9211248F9381E0809360003D
:100190008F910F900FBE0F901F90189540E00E9416
:1001A000E500089541E00E94E500089541E00E94C5
:1001B0005C01089540E00E945C0108950E943E00A9
:1001C0000E94640080E090E00895813019F130F0E1
:1001D0008230E1F1833009F454C0089541110CC01C
:1001E0002AB381E090E002C0880F991F6A95E2F778
:1001F000809582238ABB0895413009F05CC02AB300
:1002000081E090E002C0880F991F6A95E2F7822B87
:100210008ABB089541110CC027B381E090E002C071
:10022000880F991F6A95E2F78095822387BB08950E
:10023000413009F040C027B381E090E002C0880F50
:10024000991F6A95E2F7822B87BB089541110CC074
:1002500024B381E090E002C0880F991F6A95E2F70D
:100260008095822384BB0895413029F524B381E031
:1002700090E002C0880F991F6A95E2F7822B84BB39
:10028000089541110CC021B381E090E002C0880FB5
:10029000991F6A95E2F78095822381BB08954130CA
:1002A00051F421B381E090E002C0880F991F6A9554
:1002B000E2F7822B81BB0895813019F130F0823052
:1002C000E1F1833009F454C0089541110CC02BB3FF
:1002D00081E090E002C0880F991F6A95E2F780954F
:1002E00082238BBB0895413009F05CC02BB381E0C1
:1002F00090E002C0880F991F6A95E2F7822B8BBBB2
:10030000089541110CC028B381E090E002C0880F2D
:10031000991F6A95E2F78095822388BB0895413042
:1003200009F040C028B381E090E002C0880F991F17
:100330006A95E2F7822B88BB089541110CC025B362
:1003400081E090E002C0880F991F6A95E2F78095DE
:10035000822385BB0895413029F525B381E090E0E3
:1003600002C0880F991F6A95E2F7822B85BB08951A
:1003700041110CC022B381E090E002C0880F991FA8
:100380006A95E2F78095822382BB0895413051F44B
:1003900022B381E090E002C0880F991F6A95E2F7CE
:1003A000822B82BB089513BE12BE0895803491053E
:1003B000B9F030F48130910559F0089769F013C015
:1003C000811521E0920791F08115944099F00BC0BE
:1003D00083B7816083BF07C083B7826083BF03C0D8
:1003E00083B7836083BF20E030E010C083B78460B0
:1003F00083BFF9CF83B7856083BFF5CF08B600FE12
:10040000FDCF88B7816088BF2F5F3F4F2617370722
:10041000A8F3089513BE08956AEF70E088E090E0B5
:100420000E94D6010E940A0208956DE470E080E007
:1004300091E00E94D6010E940A020895F894FFCF2D
:00000001FF
