:100000000C942A000C943E000C943C000C943C0090
:100010000C943C000C943C000C943C000C943C0070
:100020000C943C000C943C000C943C000C943C0060
:100030000C943C000C943C000C943C000C943C0050
:100040000C943C000C943C000C943C000C943C0040
:100050000C943C0011241FBECFE5D8E0DEBFCDBF1D
:1000600020E0A0E6B0E001C01D92A136B207E1F7A2
:100070000E94A3010C94D2010C9400001F920F92D5
:100080000FB60F9211248F9380916000833020F47B
:100090008F5F8093600002C0109260008F910F907C
:1000A0000FBE0F901F901895813019F130F08230FB
:1000B000E1F1833009F454C0089541110CC02AB312
:1000C00081E090E002C0880F991F6A95E2F7809561
:1000D00082238ABB0895413009F05CC02AB381E0D5
:1000E00090E002C0880F991F6A95E2F7822B8ABBC5
:1000F000089541110CC027B381E090E002C0880F41
:10010000991F6A95E2F78095822387BB0895413055
:1001100009F040C027B381E090E002C0880F991F2A
:100120006A95E2F7822B87BB089541110CC024B376
:1001300081E090E002C0880F991F6A95E2F78095F0
:10014000822384BB0895413029F524B381E090E0F7
:1001500002C0880F991F6A95E2F7822B84BB08952D
:1001600041110CC021B381E090E002C0880F991FBB
:100170006A95E2F78095822381BB0895413051F45E
:1001800021B381E090E002C0880F991F6A95E2F7E1
:10019000822B81BB0895813019F130F08230E1F17A
:1001A000833009F454C0089541110CC02BB381E091
:1001B00090E002C0880F991F6A95E2F7809582232C
:1001C0008BBB0895413009F05CC02BB381E090E017
:1001D00002C0880F991F6A95E2F7822B8BBB0895A6
:1001E00041110CC028B381E090E002C0880F991F34
:1001F0006A95E2F78095822388BB0895413009F023
:1002000040C028B381E090E002C0880F991F6A9532
:10021000E2F7822B88BB089541110CC025B381E021
:1002200090E002C0880F991F6A95E2F780958223BB
:1002300085BB0895413029F525B381E090E002C0E7
:10024000880F991F6A95E2F7822B85BB08954111AB
:100250000CC022B381E090E002C0880F991F6A951C
:10026000E2F78095822382BB0895413051F422B396
:1002700081E090E002C0880F991F6A95E2F7822B17
:1002800082BB08958130E9F030F0823081F1833013
:1002900009F443C0089579B381E090E09C01062EF3
:1002A00002C0220F331F0A94E2F7872F90E08223C7
:1002B000932302C0959587956A95E2F7FA018083AA
:1002C000089576B381E090E09C01062E02C0220FD3
:1002D000331F0A94E2F7872F90E08223932302C012
:1002E000959587956A95E2F7FA018083089573B32F
:1002F00081E090E09C01062E02C0220F331F0A9479
:10030000E2F7872F90E08223932302C0959587958B
:100310006A95E2F7FA018083089570B381E090E076
:100320009C01062E02C0220F331F0A94E2F7872F8A
:1003300090E08223932302C0959587956A95E2F712
:10034000FA0180830895CF93DF931F92CDB7DEB774
:1003500041E060E080E00E94540040E061E080E025
:100360000E94540041E062E080E00E94540041E0BD
:1003700060E080E00E94CB0040E062E080E00E940C
:10038000CB001982AE014F5F5F4F61E080E00E94B9
:10039000420189818823E1F241E062E080E00E942D
:0803A000CB00D6CFF894FFCF8B
:00000001FF
